:100000000C942A000C9447000C9447000C94470071
:100010000C9447000C9447000C9447000C94470044
:100020000C9447000C9447000C9447000C94470034
:100030000C9447000C9447000C9447000C94470024
:100040000C9447000C9447000C9447000C94470014
:100050000C94470011241FBECFE5D8E0DEBFCDBF12
:1000600010E0A0E6B0E0E0EFF1E002C005900D92F4
:10007000A03AB107D9F720E0A0EAB0E001C01D9294
:10008000A13AB207E1F70E94CA000C94F6000C9462
:100090000000E0E6F0E080E041E050E0282F27702B
:1000A000982F969596959695913009F130F092306B
:1000B000C1F1933009F44FC067C09081913059F479
:1000C0009AB3BA0102C0660F771F2A95E2F79B0127
:1000D000292B2ABB59C03AB3BA0102C0660F771F59
:1000E0002A95E2F7962F909593239ABB4DC0908165
:1000F000913059F497B3BA0102C0660F771F2A9561
:10010000E2F79B01292B27BB3FC037B3BA0102C0DE
:10011000660F771F2A95E2F7962F9095932397BB4A
:1001200033C09081913059F494B3BA0102C0660F84
:10013000771F2A95E2F79B01292B24BB25C034B3F6
:10014000BA0102C0660F771F2A95E2F7962F9095A5
:10015000932394BB19C09081913059F491B3BA01A3
:1001600002C0660F771F2A95E2F79B01292B21BB5E
:100170000BC031B3BA0102C0660F771F2A95E2F7B0
:10018000962F9095932391BB8F5F3296803209F022
:1001900085CF08950E94E5000E94DB00C1E00E9427
:1001A000F2008093A0000E94E0008533C1F78BB37A
:1001B0008C278BBBF4CF0E9449006C9A6E9A0895ED
:1001C0008FB9779BFECF8FB108958AB188618AB9C4
:1001D00080B5806880BD80B5866080BD87E689B9BE
:1001E00010BC08955F9BFECF8CB10895F894FFCFAB
:1001F00001000100010001000100010001000100F7
:1002000001000100010001000100010000000100E7
:1002100001000100010001000100010001000100D6
:1002200001000100010001000100010001000100C6
:00000001FF
