:100000000C942A000C943F000C943F000C943F0089
:100010000C943F000C943F000C943F000C943F0064
:100020000C943F000C943F000C943F000C943F0054
:100030000C943F000C943F000C943F000C943F0044
:100040000C943F000C943F000C943F000C943F0034
:100050000C943F0011241FBECFE5D8E0DEBFCDBF1A
:1000600010E0A0E6B0E0E0ECF2E002C005900D92F6
:10007000A03AB107D9F70E9444010C945E010C9498
:100080000000982F9770869586958695813021F18E
:1000900030F08230F1F1833009F458C008956130B6
:1000A00069F44BB321E030E0B90102C0660F771F5D
:1000B0009A95E2F7CB01842B8BBB08954BB321E0DB
:1000C00030E0B90102C0660F771F9A95E2F7CB01C5
:1000D000809584238BBB0895613069F448B321E097
:1000E00030E0B90102C0660F771F9A95E2F7CB01A5
:1000F000842B88BB089548B321E030E0B90102C0E9
:10010000660F771F9A95E2F7CB018095842388BB11
:100110000895613069F445B321E030E0B90102C0CF
:10012000660F771F9A95E2F7CB01842B85BB089564
:1001300045B321E030E0B90102C0660F771F9A9500
:10014000E2F7CB018095842385BB0895613069F483
:1001500042B321E030E0B90102C0660F771F9A95E3
:10016000E2F7CB01842B82BB089542B321E030E05B
:10017000B90102C0660F771F9A95E2F7CB0180950F
:10018000842382BB0895E0E6F0E080E041E050E0A7
:10019000282F2770982F969596959695913009F16E
:1001A00030F09230C1F1933009F44FC067C09081B4
:1001B000913059F49AB3BA0102C0660F771F2A959D
:1001C000E2F79B01292B2ABB59C03AB3BA0102C0FE
:1001D000660F771F2A95E2F7962F909593239ABB87
:1001E0004DC09081913059F497B3BA0102C0660FA7
:1001F000771F2A95E2F79B01292B27BB3FC037B316
:10020000BA0102C0660F771F2A95E2F7962F9095E4
:10021000932397BB33C09081913059F494B3BA01C2
:1002200002C0660F771F2A95E2F79B01292B24BB9A
:1002300025C034B3BA0102C0660F771F2A95E2F7D2
:10024000962F9095932394BB19C09081913059F4C7
:1002500091B3BA0102C0660F771F2A95E2F79B019E
:10026000292B21BB0BC031B3BA0102C0660F771F27
:100270002A95E2F7962F9095932391BB8F5F329644
:10028000803209F085CF08950E94550185E30E94D0
:100290005901813329F461E088E00E944100F6CFE2
:1002A00060E088E00E944100F1CF0E94C3006E9A96
:1002B00008958FB9779BFECF8FB10895F894FFCF43
:1002C0000100010001000100010001000100010026
:1002D0000100010001000100000000000100000019
:1002E0000100010001000100010001000100010006
:1002F00001000100000001000100010001000100F7
:00000001FF
